:04000000BDEF10F050
:1000080000C015F0F2A4EED0F2940B0ED76EDC0E01
:10001800D66E03017F53D8B4E5D08051000AD8A426
:10002800D1D0010E806F000E0101171902E10F0EE9
:10003800161906E1130E0301706F010E6F6FC2D01F
:10004800000E0101171902E10F0E161906E1130E31
:100058000301706F010E6F6FB5D0000E0101171903
:1000680002E10E0E161906E1120E0301706F020E60
:100078006F6FA8D0000E0101171902E10D0E1619B5
:1000880006E1110E0301706F030E6F6F9BD0000E17
:100098000101171902E10C0E161906E1100E0301F1
:1000A800706F040E6F6F8ED0000E0101171902E1F8
:1000B8000B0E161906E10F0E0301706F050E6F6F18
:1000C80081D0000E0101171902E10A0E161906E186
:1000D8000E0E0301706F060E6F6F74D0000E0101D3
:1000E800171902E1090E161906E10D0E0301706FCA
:1000F800070E6F6F67D0000E0101171902E1080E95
:10010800161906E10C0E0301706F080E6F6F5AD0B6
:10011800000E0101171902E1070E161906E10B0E70
:100128000301706F090E6F6F4DD0000E0101171992
:1001380002E1060E161906E10A0E0301706F0A0E97
:100148006F6F40D0000E0101171902E1050E161954
:1001580006E1090E0301706F0B0E6F6F33D0000EAE
:100168000101171902E1040E161906E1080E030130
:10017800706F0C0E6F6F26D0000E0101171902E187
:10018800030E161906E1070E0301706F0D0E6F6F4F
:1001980019D0000E0101171902E1020E161906E125
:1001A800060E0301706F0E0E6F6F0CD0000E01016A
:1001B800171902E1010E161905E1050E0301706F0A
:1001C8000F0E6F6F0301010E806F7051000A03E07C
:1001D8008086700707D06F51000A03E080966F078A
:1001E80001D0806B9EA00DD003019E900B0ECF6EA8
:1001F800DC0ECE6E7851000A03E1010E786F01D053
:08020800786B15C000F0110035
:100210003A0E0C6E230E0D6E0D2EFED70C2EFCD753
:020220001200CA
:0A022200850E0D6E0D2EFED71200A2
:0C022C00020E0D6E0D2EFED70000120019
:1002380003019FBF02D08A9601D08A869FBD02D053
:100248008A9401D08A849FBB02D08A9201D08A8284
:100258009FB902D08A9001D08A806AB102D08A8878
:1002680001D08A988A8ADEDF8A9A9FB702D08A9656
:1002780001D08A869FB502D08A9401D08A849FB320
:1002880002D08A9201D08A829FB102D08A9001D08E
:100298008A806AB102D08A8801D08A988A8AC2DFA5
:0E02A8008A9A6AA102D0B0DF01D0B7DF12003F
:0E02B60003016A919EC39FF3BCDF6A811200B0
:1002C400C7B409D01F0EC514016E0150000A03E122
:0A02D400010E006E01D0006A120056
:1002DE000134083609360450085E0550D8A0053C96
:1002EE00095E003601360F0E0C6E013408360936E3
:1002FE00045000A006D0085E0550D8A0053C095E4B
:10030E0005D008260550D8B0053C09260036013622
:10031E000C2EEBD700B006D0045008260550D8B0EE
:08032E00053C09260000120045
:1003360010D0800E0301996F1AD0C00E996F17D096
:10034600940E996F14D0D40E996F11D0800E996FB8
:100356000ED003019951010AECE09951020AEDE031
:100366009951030AEDE09951040AEDE0EFD79A0599
:10037600006E9951002600C099F300C09FF359DF23
:100386006A919D6B9D519B25E96E000E9C21EA6E3C
:10039600EE520BE09D519B25E96E000E9C21EA6E04
:0E03A600EECF9EF385DF9D2BEDD76A8112000E
:1003B4000450000A08E10550000A05E1FF0E006E32
:1003C4007F0E016E57D00D6A096A086A0150001049
:1003D400D8B4000C015005180A6E0ABE0D1E0B6A33
:1003E40005AE05D0041E051E042AD8B4052A01AEA4
:1003F40005D0001E011E002AD8B4012A01500510A0
:100404000A6E0ABE10D069DF0BB020D00DAE000C0E
:10041400001E011E002AD8B4012A081E091E082A3B
:10042400D8B4092A000C05AE0DD001BE07D0015086
:10043400096E0050086E016A006AE8D7016A006A12
:10044400002A000C011E001E0B2ADDD7082AD8B48E
:10045400092A0450085CD8A4D9D70550095CD8A44B
:10046400D5D7096A086A002AD8B4012A01AECED7C2
:060474000000FF0C120065
:10047A0010D0800E0301996F1AD0C00E996F17D051
:10048A00940E996F14D0D40E996F11D0800E996F73
:10049A000ED003019951010AECE09951020AEDE0EC
:1004AA009951030AEDE09951040AEDE0EFD79A0554
:1004BA00006E9951002600C099F36A8100C09FF32B
:0E04CA00B6DE6A919BC39FF3B2DE6A81120018
:1004D800086A080E0C6E003408360450085ED8B05E
:0E04E80002D00826D89000360C2EF5D7120050
:1004F6009E9699C3C9FFC7A401D0FDD79EB601D069
:10050600FDD7C5BC02D0006A03D0C584020E006EBA
:020516001200D1
:100518000301996B9A6B9A51120802E199518E085E
:1005280008E3CCDE005201E004D00301994B9A2B7A
:10053800F2D70301120E9A5D02E18F0E995D03E373
:100548007B0E006E05D0C580C5A001D0FDD7006A1E
:0205580012008F
:04055A00C584120042
:10055E009E96C5869EB601D0FDD7C9CF01F0030188
:10056E009951000A02E1C58A01D0C59A9E96C588A6
:0C057E009EB601D0FDD701C000F01200B5
:0C058A003A0E0D6E0D2EFED70000120080
:10059600A6A202D00000FCD7A69C8BC3A9FF8CC3E1
:1005A600A8FFA69EA684F2CF00F0F29E550EA76E77
:1005B600AA0EA76EA68200BE02D0F29E01D0F28ECF
:0405C600A6941200E5
:1005CA000900F5CFE6FF0006FBE10106F9E112009A
:1005DA0090C373F3030E03019017060E006E0050CA
:1005EA0004E090379091FF0FFBD791DFA00E030133
:1005FA00996F7CDF0301996B79DF800E0301996F94
:10060A0075DF0301996B72DF8DC399F36FDF8CC3BA
:10061A0099F36CDF8BC399F369DF030190518E1153
:10062A00996F64DF8FC399F361DF92DF70DFA00EE9
:10063A000301996F5BDF0301996B58DF0301996B23
:06064A0055DF86DF1200FF
:1006500003018D51000A56E10A0E046E8BC300F0AF
:100660003BDFE1C0E1FFE2C0E2FF300E0024E66EB6
:10067000010E0001E12503018F6F000E0001E22150
:100680000301906F0A0E046E8BC300F025DF08C0D3
:1006900000F0300E00268FC3E1FF90C3E2FF00C0E0
:1006A000E6FF030E0001E12503018F6F000E00013C
:1006B000E2210301906F0A0E046E8CC300F00CDF80
:1006C000300E00268FC3E1FF90C3E2FF00C0E6FFBB
:1006D000040E0001E12503018F6F000E0001E221ED
:1006E0000301906F0A0E046E8CC300F0F5DE08C0A3
:1006F00000F0300E00268FC3E1FF90C3E2FF00C080
:10070000E6FF81D08D51010A42E18E51000A3FE19E
:10071000E1C0E1FFE2C0E2FF200EE66E010E000143
:10072000E125E16E000EE221E26E200EE66E030E80
:10073000E12503018F6F000E0001E2210301906F9C
:100740000A0E046E8CC300F0C7DE300E00268FC385
:10075000E1FF90C3E2FF00C0E6FF040E0001E125C7
:1007600003018F6F000E0001E2210301906F0A0E5A
:10077000046E8CC300F0B0DE08C000F0300E00261E
:100780008FC3E1FF90C3E2FF00C0E6FF3CD08D5174
:10079000010A39E18E51010A36E10A0E046E8BC35B
:1007A00000F09ADEE1C0E1FFE2C0E2FF300E00247B
:1007B000E66E010E0001E12503018F6F000E0001BE
:1007C000E2210301906F0A0E046E8BC300F084DEF9
:1007D00008C000F0300E00268FC3E1FF90C3E2FF97
:1007E00000C0E6FF030E0001E125E16E000EE221EC
:1007F000E26E200EE66E040EE125E16E000EE221AF
:10080000E26E200EE66E010E0301996F010E9A6FE3
:10081000A50E9B6F000E9C6F8EDD020E996F010E70
:0E0820009A6FE1C09BF3E2C09CF385DD1200ED
:10082E0003018E51000A72E10A0E046E8BC300F0B2
:10083E004CDE1FC0E1FF20C0E2FF300E0024E66E4A
:10084E00010E1F24906F000E2020916F0A0E046E71
:10085E008BC300F03ADE08C000F0300E002690C3C5
:10086E00E1FF91C3E2FF00C0E6FF030E1F24906F6D
:10087E00000E2020916F0A0E046E8CC300F025DE50
:10088E00300E002690C3E1FF91C3E2FF00C0E6FFE9
:10089E00040E1F24906F000E2020916F0A0E046E1E
:1008AE008CC300F012DE08C000F0300E002690C39C
:1008BE00E1FF91C3E2FF00C0E6FF060E1F24906F1A
:1008CE00000E2020916F0A0E046E8DC300F0FDDD28
:1008DE00300E002690C3E1FF91C3E2FF00C0E6FF99
:1008EE00070E1F24906F000E2020916F0A0E046ECB
:1008FE008DC300F0EADD08C000F0300E002690C374
:10090E00E1FF91C3E2FF00C0E6FF24D18E51010A40
:10091E0062E18F51000A5FE11FC0E1FF20C0E2FFDC
:10092E00200EE66E010E1F24E16E000E2020E26EF8
:10093E00200EE66E030E1F24906F000E2020916F86
:10094E000A0E046E8CC300F0C0DD300E002690C37C
:10095E00E1FF91C3E2FF00C0E6FF040E1F24906F7B
:10096E00000E2020916F0A0E046E8CC300F0ADDDD8
:10097E0008C000F0300E002690C3E1FF91C3E2FFE5
:10098E0000C0E6FF060E1F24906F000E2020916F10
:10099E000A0E046E8DC300F098DD300E002690C353
:1009AE00E1FF91C3E2FF00C0E6FF070E1F24906F28
:1009BE00000E2020916F0A0E046E8DC300F085DDAF
:1009CE0008C000F0300E002690C3E1FF91C3E2FF95
:1009DE0000C0E6FFBFD08E51010A5DE18F51010AC2
:1009EE005AE10A0E046E8BC300F06FDD1FC0E1FFEB
:1009FE0020C0E2FF300E0024E66E010E1F24906F21
:100A0E00000E2020916F0A0E046E8BC300F05DDD88
:100A1E0008C000F0300E002690C3E1FF91C3E2FF44
:100A2E0000C0E6FF030E1F24E16E000E2020E26ED2
:100A3E00200EE66E040E1F24E16E000E2020E26EE4
:100A4E00200EE66E060E1F24906F000E2020916F72
:100A5E000A0E046E8DC300F038DD300E002690C3F2
:100A6E00E1FF91C3E2FF00C0E6FF070E1F24906F67
:100A7E00000E2020916F0A0E046E8DC300F025DD4E
:100A8E0008C000F0300E002690C3E1FF91C3E2FFD4
:100A9E0000C0E6FF5FD08E51010A5CE18F51020A61
:100AAE0059E10A0E046E8BC300F00FDD1FC0E1FF8B
:100ABE0020C0E2FF300E0024E66E010E1F24906F60
:100ACE00000E2020916F0A0E046E8BC300F0FDDC29
:100ADE0008C000F0300E002690C3E1FF91C3E2FF84
:100AEE0000C0E6FF030E1F24906F000E2020916FB2
:100AFE000A0E046E8CC300F0E8DC300E002690C3A4
:100B0E00E1FF91C3E2FF00C0E6FF040E1F24906FC9
:100B1E00000E2020916F0A0E046E8CC300F0D5DCFF
:100B2E0008C000F0300E002690C3E1FF91C3E2FF33
:100B3E0000C0E6FF060E1F24E16E000E2020E26EBE
:100B4E00200EE66E070E1F24E16E000E2020E26ED0
:100B5E00200EE66E010E996F010E9A6F6B0E9B6F53
:100B6E00000E9C6F9BEC01F0020E996F010E9A6FB6
:0E0B7E001FC09BF320C09CF39BEC01F0120003
:100B8C0003018B51090826E20A0E046E8BC300F098
:100B9C009DDC01C1E1FF02C1E2FF300E0024E66ED4
:100BAC00010E010101250301926F000E01010221CA
:100BBC000301936F0A0E046E8BC300F087DC08C030
:100BCC0000F0300E002692C3E1FF93C3E2FF00C099
:100BDC00E6FF10D001C1E1FF02C1E2FF300E8B2510
:100BEC00E66E010E01010125E16E000E0221E26E9E
:100BFC00200EE66E800E03018F19006E800E005CD5
:100C0C0002E1640E8E5D43E2FEC0E1FFFFC0E2FF35
:100C1C00200EE66E010E0001FE250301926F000E00
:100C2C000001FF210301936F0A0E046E000E056E86
:100C3C008EC300F08FC301F0DAEC01F0300E002609
:100C4C0092C3E1FF93C3E2FF00C0E6FF030E000175
:100C5C00FE250301926F000E0001FF210301936F2B
:100C6C000A0E046E000E056E8EC300F08FC301F0E9
:100C7C00DAEC01F008C000F009C001F0300E0026DB
:100C8C0092C3E1FF93C3E2FF00C0E6FF72D0800E77
:100C9C0003018F19006E800E005C02E1640E8E5D04
:100CAC0068E30A0E046E000E056E8EC300F08FC34F
:100CBC0001F0DAEC01F00A0E046E000E056EDAECAF
:100CCC0001F0300E0026FEC0E1FFFFC0E2FF00C0C5
:100CDC00E6FF010E0001FE250301926F000E0001DC
:100CEC00FF210301936F0A0E046E000E056E8EC376
:100CFC0000F08FC301F0DAEC01F00A0E046E000E66
:100D0C00056EDAEC01F008C000F009C001F0300EFD
:100D1C00002692C3E1FF93C3E2FF00C0E6FF030E7F
:100D2C000001FE250301926F000E0001FF2103015B
:100D3C00936F0A0E046E000E056E8EC300F08FC307
:100D4C0001F0DAEC01F008C000F009C001F00A0E65
:100D5C00046E000E056EDAEC01F008C000F009C05C
:100D6C0001F0300E002692C3E1FF93C3E2FF00C0F6
:100D7C00E6FF03019151000AD8A4C2D00A0E046EFA
:100D8C008CC300F06CEC02F0F1C0E1FFF2C0E2FFAA
:100D9C00300E0024E66E010E0001F1250301926F66
:100DAC00000E0001F2210301936F0A0E046E8CC336
:100DBC0000F06CEC02F008C000F0300E002692C37C
:100DCC00E1FF93C3E2FF00C0E6FF030E0001F12533
:100DDC000301926F000E0001F2210301936F0A0EC2
:100DEC00046E8DC300F06CEC02F0300E002692C342
:100DFC00E1FF93C3E2FF00C0E6FF040E0001F12502
:100E0C000301926F000E0001F2210301936F0A0E91
:100E1C00046E8DC300F06CEC02F008C000F0300ED4
:100E2C00002692C3E1FF93C3E2FF00C0E6FF0A0E67
:100E3C00046E000E056E8EC300F08FC301F0DAEC69
:100E4C0001F00A0E046E000E056EDAEC01F0300EA5
:100E5C000026FEC0E1FFFFC0E2FF00C0E6FF010E6E
:100E6C000001FE250301926F000E0001FF2103011A
:100E7C00936F0A0E046E000E056E8EC300F08FC3C6
:100E8C0001F0DAEC01F00A0E046E000E056EDAECDD
:100E9C0001F008C000F009C001F0300E002692C32A
:100EAC00E1FF93C3E2FF00C0E6FF030E0001FE2545
:100EBC000301926F000E0001FF210301936F0A0ED4
:100ECC00046E000E056E8EC300F08FC301F0DAECD9
:100EDC0001F008C000F009C001F00A0E046E000E0B
:100EEC00056EDAEC01F008C000F009C001F0300E1C
:100EFC00002692C3E1FF93C3E2FF00C0E6FFD3D10B
:100F0C0003019151010AD8A4ADD09051000AD8A484
:100F1C00A9D0F1C0E1FFF2C0E2FF200EE66E010E97
:100F2C000001F125E16E000EF221E26E200EE66E5C
:100F3C00030EF1250301926F000E0001F221030153
:100F4C00936F0A0E046E8DC300F06CEC02F0300E41
:100F5C00002692C3E1FF93C3E2FF00C0E6FF040E3C
:100F6C000001F1250301926F000E0001F221030133
:100F7C00936F0A0E046E8DC300F06CEC02F008C087
:100F8C0000F0300E002692C3E1FF93C3E2FF00C0D5
:100F9C00E6FF0A0E046E000E056E8EC300F08FC3C2
:100FAC0001F0DAEC01F00A0E046E000E056EDAECBC
:100FBC0001F0300E0026FEC0E1FFFFC0E2FF00C0D2
:100FCC00E6FF010E0001FE250301926F000E0001E9
:100FDC00FF210301936F0A0E046E000E056E8EC383
:100FEC0000F08FC301F0DAEC01F00A0E046E000E73
:100FFC00056EDAEC01F008C000F009C001F0300E0B
:10100C00002692C3E1FF93C3E2FF00C0E6FF030E8C
:10101C000001FE250301926F000E0001FF21030168
:10102C00936F0A0E046E000E056E8EC300F08FC314
:10103C0001F0DAEC01F008C000F009C001F00A0E72
:10104C00046E000E056EDAEC01F008C000F009C069
:10105C0001F0300E002692C3E1FF93C3E2FF00C003
:10106C00E6FF21D103019151010AD8A4A5D09051DA
:10107C00010AD8A4A1D00A0E046E8CC300F06CEC4B
:10108C0002F0F1C0E1FFF2C0E2FF300E0024E66E88
:10109C00010E0001F1250301926F000E0001F221F7
:1010AC000301936F0A0E046E8CC300F06CEC02F01B
:1010BC0008C000F0300E002692C3E1FF93C3E2FF9C
:1010CC0000C0E6FF030E0001F125E16E000EF221D7
:1010DC00E26E200EE66E040EF125E16E000EF2219A
:1010EC00E26E200EE66E0A0E046E000E056E8EC3C6
:1010FC0000F08FC301F0DAEC01F00A0E046E000E62
:10110C00056EDAEC01F0300E0026FEC0E1FFFFC0E8
:10111C00E2FF00C0E6FF010E0001FE250301926F05
:10112C00000E0001FF210301936F0A0E046E000EE6
:10113C00056E8EC300F08FC301F0DAEC01F00A0EDD
:10114C00046E000E056EDAEC01F008C000F009C068
:10115C0001F0300E002692C3E1FF93C3E2FF00C002
:10116C00E6FF030E0001FE250301926F000E000145
:10117C00FF210301936F0A0E046E000E056E8EC3E1
:10118C0000F08FC301F0DAEC01F008C000F009C0E8
:10119C0001F00A0E046E000E056EDAEC01F008C0C8
:1011AC0000F009C001F0300E002692C3E1FF93C39A
:1011BC00E2FF00C0E6FF77D003019151010A73E111
:1011CC009051020A70E10A0E046E8CC300F06CECB4
:1011DC0002F0F1C0E1FFF2C0E2FF300E0024E66E37
:1011EC00010E0001F1250301926F000E0001F221A6
:1011FC000301936F0A0E046E8CC300F06CEC02F0CA
:10120C0008C000F0300E002692C3E1FF93C3E2FF4A
:10121C0000C0E6FF030E0001F1250301926F000EE2
:10122C000001F2210301936F0A0E046E8DC300F0CE
:10123C006CEC02F0300E002692C3E1FF93C3E2FF88
:10124C0000C0E6FF040E0001F1250301926F000EB1
:10125C000001F2210301936F0A0E046E8DC300F09E
:10126C006CEC02F008C000F0300E002692C3E1FFD7
:10127C0093C3E2FF00C0E6FFFEC0E1FFFFC0E2FF48
:10128C00200EE66E010E0001FE25E16E000EFF2120
:10129C00E26E200EE66E030EFE25E16E000EFF21BF
:1012AC00E26E200EE66E010E0301996F010E9A6F2D
:1012BC00D20E9B6F000E9C6F9BEC01F0010E996F90
:1012CC000F0E9A6F01C19BF302C19CF39BEC01F0D2
:1012DC00020E996F010E9A6FF1C09BF3F2C09CF352
:1012EC009BEC01F0020E996F060E9A6FCD0E9B6F60
:1012FC00000E9C6F9BEC01F0020E996F0B0E9A6F17
:10130C00FEC09BF3FFC09CF39BEC01F0020E996FA7
:10131C000F0E9A6FB20E9B6F3DEC02F0020E996F9E
:0E132C00100E9A6F430E9B6F3DEC02F0120004
:10133A0003018B51090828E20A0E046E8BC300F0E0
:10134A006CEC02F001C1E1FF02C1E2FF300E0024A1
:10135A00E66E010E010101250301906F000E0101E5
:10136A0002210301916F0A0E046E8BC300F06CEC2C
:10137A0002F008C000F0300E002690C3E1FF91C3CE
:10138A00E2FF00C0E6FF10D001C1E1FF02C1E2FFA7
:10139A00300E8B25E66E010E01010125E16E000E6D
:1013AA000221E26E200EE66E0A0E046E8CC300F075
:1013BA006CEC02F0F1C0E1FFF2C0E2FF300E002453
:1013CA00E66E010E0001F1250301906F000E000187
:1013DA00F2210301916F0A0E046E8CC300F06CECCB
:1013EA0002F008C000F0300E002690C3E1FF91C35E
:1013FA00E2FF00C0E6FF030E0001F1250301906F32
:10140A00000E0001F2210301916F0A0E046E8DC3D2
:10141A0000F06CEC02F0300E002690C3E1FF91C39D
:10142A00E2FF00C0E6FF040E0001F1250301906F00
:10143A00000E0001F2210301916F0A0E046E8DC3A2
:10144A0000F06CEC02F008C000F0300E002690C3E9
:10145A00E1FF91C3E2FF00C0E6FF0A0E046E000E30
:10146A00056E8EC300F08FC301F0DAEC01F00A0EAC
:10147A00046E000E056EDAEC01F0300E0026FEC096
:10148A00E1FFFFC0E2FF00C0E6FF010E0001FE25FA
:10149A000301906F000E0001FF210301916F0A0EF4
:1014AA00046E000E056E8EC300F08FC301F0DAECF5
:1014BA0001F00A0E046E000E056EDAEC01F008C0A7
:1014CA0000F009C001F0300E002690C3E1FF91C37D
:1014DA00E2FF00C0E6FF030E0001FE250301906F44
:1014EA00000E0001FF210301916F0A0E046E000E27
:1014FA00056E8EC300F08FC301F0DAEC01F008C06C
:10150A0000F009C001F00A0E046E000E056EDAEC56
:10151A0001F008C000F009C001F0300E002690C3A7
:10152A00E1FF91C3E2FF00C0E6FF010E0301996FDC
:10153A00010E9A6F480E9B6F000E9C6F9BEC01F098
:10154A00010E996F0A0E9A6F01C19BF302C19CF3B7
:10155A009BEC01F0020E996F010E9A6FF1C09BF39A
:10156A00F2C09CF39BEC01F0020E996F060E9A6F83
:10157A00430E9B6F000E9C6F9BEC01F0020E996F5D
:10158A000B0E9A6FFEC09BF3FFC09CF39BEC01F01D
:10159A00020E996F0F0E9A6FB20E9B6F3DEC02F01E
:1015AA00020E996F100E9A6F430E9B6F3DEC02F07C
:0215BA0012001D
:1015BC00939A939893909392939493968A9A8A98E9
:1015CC008A968A948A928A9008EC01F008EC01F0D1
:1015DC0008EC01F08A828A808A8A16EC01F08A9AD9
:1015EC0008EC01F08A8A16EC01F08A9A08EC01F0FA
:1015FC008A8A16EC01F08A9A08EC01F08A908A8AA1
:10160C0016EC01F08A9A08EC01F08A8A16EC01F0CB
:10161C008A9A8A928A868A8A16EC01F08A9A08EC4F
:10162C0001F08A968A808A8A16EC01F08A9A8A904E
:10163C008A8A16EC01F08A9A08EC01F08A8A16EC78
:10164C0001F08A9A8A808A8A16EC01F08A9A08EC50
:10165C0001F08A908A8A16EC01F08A9A8A868A842A
:10166C008A828A808A8A16EC01F08A9A08EC01F048
:06167C0003016A81120067
:10168200840ED56E0B0ED76EDC0ED66EF28EF28AFB
:02169200120044
:10169400A69C8BC3A9FFA69EA680A8CF00F012002B
:1016A400949894968B988B9694889486C79EC79C9E
:0616B400380EC66E1200A4
:1016BA00FF0E03016B6FFF0E6C6FFF0E6D6FFF0E57
:0E16CA006E6FC26A070EC012C08EC280120080
:1016D8008CEC02F0A00E0301996F7BEC02F08BC337
:1016E80099F37BEC02F08CC399F37BEC02F0ADEC40
:0416F80002F01200EA
:1016FC00010E0301996F010E9A6F320E9B6F000E53
:10170C009C6F9BEC01F0020E996F010E9A6F210EEB
:0C171C009B6F000E9C6F9BEC01F0120014
:101728008FC3E9FF90C3EAFFEECF98F30A0E046E69
:1017380098C300F06CEC02F000C001F00136019093
:10174800013601900136019001360190F00E011426
:101758000301976F0A0E046E98C300F06CEC02F058
:1017680008C000F00F0E00168FC3E1FF90C3E2FF20
:1017780000509725E66E8DC3E9FF8EC3EAFFEECFD2
:1017880098F30A0E046E98C300F06CEC02F000C0E7
:1017980001F00136019001360190013601900136C1
:1017A8000190F00E0114976F0A0E046E98C300F0B2
:1017B8006CEC02F008C000F00F0E00168DC3E1FFBC
:1017C8008EC3E2FF00509725E66E8BC3E9FF8CC3FA
:1017D800EAFFEECF98F30A0E046E98C300F06CECA3
:1017E80002F000C001F00136019001360190013687
:1017F800019001360190F00E0114976F0A0E046EE5
:1018080098C300F06CEC02F008C000F00F0E001650
:101818008BC3E1FF8CC3E2FF00509725E66E91C3AE
:10182800E9FF92C3EAFFEECF98F30A0E046E98C35D
:1018380000F06CEC02F000C001F0013601900136B6
:1018480001900136019001360190F00E0114976F56
:101858000A0E046E98C300F06CEC02F008C000F0A9
:101868000F0E001691C3E1FF92C3E2FF00509725C7
:10187800E66E93C3E9FF94C3EAFFEECF98F30A0E2E
:10188800046E98C300F06CEC02F000C001F0013661
:101898000190013601900136019001360190F00E59
:1018A8000114976F0A0E046E98C300F06CEC02F0F6
:1018B80008C000F00F0E001693C3E1FF94C3E2FFC7
:0818C80000509725E66E1200A6
:1018D0000A0E046E8BC300F06CEC02F0E1C0E1FF75
:1018E000E2C0E2FF300E0024E66E010E0001E125A9
:1018F0000301956F000E0001E2210301966F0A0EAD
:10190000046E8BC300F06CEC02F008C000F0300EE7
:10191000002695C3E1FF96C3E2FF00C0E6FF030E79
:101920000001E1250301956F000E0001E221030192
:10193000966F0A0E046E8CC300F06CEC02F0300E51
:10194000002695C3E1FF96C3E2FF00C0E6FF040E48
:101950000001E1250301956F000E0001E221030162
:10196000966F0A0E046E8CC300F06CEC02F008C097
:1019700000F0300E002695C3E1FF96C3E2FF00C0E1
:10198000E6FF0A0E046E8DC300F06CEC02F01FC07F
:10199000E1FF20C0E2FF300E0024E66E010E1F249E
:1019A000956F000E2020966F0A0E046E8DC300F016
:1019B0006CEC02F008C000F0300E002695C3E1FF89
:1019C00096C3E2FF00C0E6FF030E1F24956F000ED2
:1019D0002020966F0A0E046E8EC300F06CEC02F0AD
:1019E000300E002695C3E1FF96C3E2FF00C0E6FF7C
:1019F000040E1F24956F000E2020966F0A0E046EB1
:101A00008EC300F06CEC02F008C000F0300E00262F
:101A100095C3E1FF96C3E2FF00C0E6FF060E1F2458
:101A2000956F000E2020966F0A0E046E8FC300F093
:101A30006CEC02F0300E002695C3E1FF96C3E2FF86
:101A400000C0E6FF070E1F24956F000E2020966F42
:101A50000A0E046E8FC300F06CEC02F008C000F0B8
:101A6000300E002695C3E1FF96C3E2FF00C0E6FFFB
:101A70009051090824E20A0E046E90C300F06CEC49
:101A800002F019C0E1FF1AC0E2FF300E0024E66E3A
:101A9000010E1924956F000E1A20966F0A0E046E1F
:101AA00090C300F06CEC02F008C000F0300E00268D
:101AB00095C3E1FF96C3E2FF00C0E6FF0FD019C057
:101AC000E1FF1AC0E2FF300E9025E66E010E1924E8
:101AD000E16E000E1A20E26E200EE66E010E996F86
:101AE000010E9A6FE1C09BF3E2C09CF39BEC01F006
:101AF000010E996F060E9A6F160E9B6F000E9C6F6B
:101B00009BEC01F0010E996F080E9A6F19C09BF3C0
:101B10001AC09CF39BEC01F0020E996F010E9A6FB4
:101B20001FC09BF320C09CF39BEC01F0020E996F49
:101B3000090E9A6F2E0E9B6F3DEC02F0800E9219EB
:101B4000006E800E005C02E1640E915D3CE21DC0FF
:101B5000E1FF1EC0E2FF200EE66E010E1D24956F10
:101B6000000E1E20966F0A0E046E000E056E91C3C5
:101B700000F092C301F0DAEC01F0300E002695C3BC
:101B8000E1FF96C3E2FF00C0E6FF030E1D24030140
:101B9000956F000E1E20966F0A0E046E000E056EE5
:101BA00091C300F092C301F0DAEC01F008C000F03C
:101BB00009C001F0300E002695C3E1FF96C3E2FF95
:101BC00000C0E6FF6CD0800E03019219006E800EFB
:101BD000005C02E1640E915D62E30A0E046E000E89
:101BE000056E91C300F092C301F0DAEC01F00A0E29
:101BF000046E000E056EDAEC01F0300E00261DC0FA
:101C0000E1FF1EC0E2FF00C0E6FF010E1D2403013C
:101C1000956F000E1E20966F0A0E046E000E056E64
:101C200091C300F092C301F0DAEC01F00A0E046EE9
:101C3000000E056EDAEC01F008C000F009C001F0FA
:101C4000300E002695C3E1FF96C3E2FF00C0E6FF19
:101C5000030E1D240301956F000E1E20966F0A0EC1
:101C6000046E000E056E91C300F092C301F0DAEC31
:101C700001F008C000F009C001F00A0E046E000E69
:101C8000056EDAEC01F008C000F009C001F0300E7A
:101C9000002695C3E1FF96C3E2FF00C0E6FF010EF8
:101CA0000301996F0A0E9A6F200E9B6F3DEC02F0B4
:101CB000010E996F0B0E9A6F1DC09BF31EC09CF313
:101CC0009BEC01F0010E996F0F0E9A6FB20E9B6F95
:101CD0003DEC02F0010E996F100E9A6F430E9B6F50
:101CE0003DEC02F0800E9419006E800E005C02E163
:101CF000640E935D3CE21BC0E1FF1CC0E2FF200EBE
:101D0000E66E010E1B24956F000E1C20966F0A0EC6
:101D1000046E000E056E93C300F094C301F0DAEC7C
:101D200001F0300E002695C3E1FF96C3E2FF00C02C
:101D3000E6FF030E1B240301956F000E1C20966F17
:101D40000A0E046E000E056E93C300F094C301F0FA
:101D5000DAEC01F008C000F009C001F0300E0026F6
:101D600095C3E1FF96C3E2FF00C0E6FF6CD0800E92
:101D700003019419006E800E005C02E1640E935D15
:101D800062E30A0E046E000E056E93C300F094C366
:101D900001F0DAEC01F00A0E046E000E056EDAECCA
:101DA00001F0300E00261BC0E1FF1CC0E2FF00C0A6
:101DB000E6FF010E1B240301956F000E1C20966F99
:101DC0000A0E046E000E056E93C300F094C301F07A
:101DD000DAEC01F00A0E046E000E056EDAEC01F08A
:101DE00008C000F009C001F0300E002695C3E1FFE5
:101DF00096C3E2FF00C0E6FF030E1B240301956FAC
:101E0000000E1C20966F0A0E046E000E056E93C322
:101E100000F094C301F0DAEC01F008C000F009C052
:101E200001F00A0E046E000E056EDAEC01F008C037
:101E300000F009C001F0300E002695C3E1FF96C303
:101E4000E2FF00C0E6FF020E0301996F0A0E9A6FCF
:101E5000200E9B6F3DEC02F0020E996F0B0E9A6FF5
:101E60001BC09BF31CC09CF39BEC01F0020E996F0E
:101E70000F0E9A6FB20E9B6F3DEC02F0020E996F3F
:0E1E8000100E9A6F430E9B6F3DEC02F01200A5
:101E8E008FC3E9FF90C3EAFFEECF03F0F00E031409
:101E9E00026E02C000F00032009E0032009E003240
:101EAE00009E0032009E0A0E0002F3CF01F00F0ECC
:101EBE000314006E8FC3E1FF90C3E2FF00500124B4
:101ECE00E66E8DC3E9FF8EC3EAFFEECF03F0F00E90
:101EDE000314026E02C000F00032009E0032009E1B
:101EEE000032009E0032009E0A0E0002F3CF01F077
:101EFE000F0E0314006E8DC3E1FF8EC3E2FF005080
:101F0E000124E66E8BC3E9FF8CC3EAFFEECF03F02C
:101F1E00F00E0314026E02C000F00032009E00327A
:101F2E00009E0032009E0032009E0A0E0002F3CF89
:101F3E0001F00F0E0314006E8BC3E1FF8CC3E2FFA2
:101F4E0000500124E66E91C3E9FF92C3EAFFC00E72
:101F5E00EE14026E060E016E02C000F0015004E097
:101F6E000032009EFF0FFBD795C3E1FF96C3E2FF41
:101F7E0000C0E6FF91C3E9FF92C3EAFFEECF03F084
:101F8E00300E0314026E02C000F00032009E0032CA
:101F9E00009E0032009E0032009E0A0E0002F3CF19
:101FAE0001F00F0E0314006E91C3E1FF92C3E2FF26
:101FBE0000500124E66E93C3E9FF94C3EAFFEECF0F
:101FCE0003F0100E0314026E02C000F00032009EE9
:101FDE000032009E0032009E0032009E0A0E000269
:101FEE00F3CF01F00F0E0314006E93C3E1FF94C301
:0A1FFE00E2FF00500124E66E12001D
:10200800010E0301996F010E9A6F520E9B6F000E1D
:082018009C6F9BEC01F012002B
:10202000010E0301996F010E9A6F940E9B6F000EC3
:102030009C6F9BEC01F0020E996F010E9A6F830E5C
:0C2040009B6F000E9C6F9BEC01F01200E7
:10204C00010E0301996F010E9A6F5F0E9B6F000ECC
:08205C009C6F9BEC01F01200E7
:10206400C26A070EC012C08E8BC300F00036009007
:10207400003600900050C212C280C5EC02F0C28249
:10208400C2A201D0FDD7C4CF01F0006AC350001230
:08209400000E0112C2901200BF
:10209C00310ECD6E9E900B0ECF6EDC0ECE6E9D80F3
:0620AC00C00EF26E1200EE
:1020B200010E0301996F010E9A6FE30E9B6F000EE2
:0820C2009C6F9BEC01F0120081
:1020CA00010E0301996F010E9A6F740E9B6F000E39
:0820DA009C6F9BEC01F0120069
:1020E2008CEC02F0A00E0301996F7BEC02F0020E61
:1020F2000301996F7BEC02F08CEC02F0A10E03015C
:10210200996F7BEC02F0010E0301996FAFEC02F0C4
:102112008FC3E1FF90C3E2FF00C0E6FF010E03019F
:10212200996FAFEC02F08DC3E1FF8EC3E2FF00C0F6
:10213200E6FF010E0301996FAFEC02F08BC3E1FFE2
:102142008CC3E2FF00C0E6FF010E0301996FAFEC02
:1021520002F091C3E1FF92C3E2FF00C0E6FF030178
:10216200996BAFEC02F093C3E1FF94C3E2FF00C0AE
:08217200E6FFADEC02F01200E3
:10217A00FEEC1EF0010E0F01386F396B3A6B3B6BA8
:10218A006094896A8A6A8B6A8C6A8D6A170E926E63
:10219A00936A946A956A966A5DEC0BF0500EC86E63
:1021AA0052EC0BF08B6B8C6B6CEC0BF0DEEC0AF0E8
:1021BA00010E9F6F1CEC01F00C0E9F6F1CEC01F0DE
:1021CA007B6B7A6BFA0E7D6F000E7E6F7C6B776B82
:1021DA00766B796B786B846B836B866B856B806BA4
:1021EA007F6B826B846B816B756B01011E6B1D6B40
:1021FA00FA0E206F000E216F1F6B1C6B196B186B88
:10220A001B6B1A6B226B0301676B666B030E8B6F7A
:10221A004AEC0BF000C069F3000E005C04E369515C
:10222A00630801E302D0100E696F040E686F020E94
:10223A008B6F4AEC0BF000C075F30050000860E2A7
:10224A00630E755D5DE2010E0101196F0301656B95
:10225A007551655D54E2B30E876F010E886F655143
:10226A008727D8B0882B68C38BF34AEC0BF087C357
:10227A00E1FF88C3E2FF00C0E6FF230E876F010E6D
:10228A00886F65518727D8B0882B6851010F8B6FEB
:10229A004AEC0BF087C3E1FF88C3E2FF00C0E6FF08
:1022AA0065C300F0000E016E003600900136450E3F
:1022BA000024896F020E01208A6F020E68258B6F37
:1022CA004AEC0BF0640E0002F3CF87F3F4CF88F3E5
:1022DA00030E68258B6F4AEC0BF0000E016E8751D6
:1022EA0000268851012289C3E1FF8AC3E2FF00C0A8
:1022FA00E6FF01C0E6FF040E6827652BA9D701D0C7
:10230A00756B41EC0BF0C5DE0301800E010A006E0D
:10231A00800E7E19005C02E17D51F40802E27D6BB9
:10232A007E6B800E7E19006E800E005C02E1000E4C
:10233A007D5D04E2F40E7D6F010E7E6F8B6B8DDE88
:10234A0000C043F201C044F2005003017D5D026EF9
:10235A0001507E59036E02C016F103C017F1800EB8
:10236A00006E800E0318005C02E102500F0804E2BE
:10237A0080867F6B806B12D0800E006E800E01010A
:10238A001719005C02E11651000805E38096030163
:10239A007F6B806B03D00301010E7F6F7A51000AB5
:1023AA0050E101011951000A02E103017B6B0301AB
:1023BA00080E8B6F010E8C6F070E8D6F010E8E6FDC
:1023CA000A0E8F6F010E906F090E916F010E926FB8
:1023DA00060E936F010E946F7FDE080E03018B6F5A
:1023EA00010E8C6F070E8D6F010E8E6F0A0E8F6FA6
:1023FA00010E906F090E916F010E926F060E936F88
:10240A00010E946F030E956F010E966F3BDD69C343
:10241A0003F108C18BF307C18CF309C18DF306C11F
:10242A008EF369C38FF37BC390F37DC391F37EC3AD
:10243A0092F343C293F344C294F368EC0CF0846BB6
:10244A00BDD27A51010AD8A491D08451000A31E14F
:10245A00010E846F000E8B6F010E8C6F050E8D6F4F
:10246A00010E8E6F040E8F6F010E906F0B0E916F1F
:10247A00010E926F120E936F010E946F2DDE000EF5
:10248A0003018B6F010E8C6F050E8D6F010E8E6F1F
:10249A00040E8F6F010E906F0B0E916F010E926FEB
:1024AA00120E936F010E946F110E956F010E966FB7
:1024BA00E9DC03017C5303E1775301E101D0786B36
:1024CA008651000A1EE1010100511708D8A0006BCD
:1024DA00000E005D02E2170E006F05513B08D8A0FE
:1024EA00056B000E055D02E23B0E056F00C18BF322
:1024FA0005C18CF378C38DF383C38EF328EC03F004
:10250A0034D08651010A2DE101010B511F0802E264
:10251A00010E0B6F010E0B5D02E21F0E0B6F1251C3
:10252A000C0802E2010E126F010E125D02E20C0E9D
:10253A00126F03016951630802E2010E696F010E0D
:10254A00695D02E2630E696F0BC18BF312C18CF3F2
:10255A0069C38DF378C38EF385C38FF317EC04F048
:10256A0004D08651020A01E156DD28D27A51020AC4
:10257A0014E18151000A02E164DD0ED08151010AA1
:10258A0002E13DDD09D08151020A02E199DD04D060
:10259A008151030A01E188DD11D27A51030A52E11D
:1025AA00030E01011F5D4CE203017C5303E17753E3
:1025BA0001E101D0786B01011E511708D8A01E6BEA
:1025CA00000E1E5D02E2170E1E6F1D513B08D8A0B9
:1025DA001D6B000E1D5D02E23B0E1D6F030175515E
:1025EA00000A03E1020E01011F6F0101800E010AB8
:1025FA00006E800E2119005C02E12051F40802E20B
:10260A00206B216B800E2119006E800E005C02E1A6
:10261A00000E205D04E2F40E206F010E216F75C3D7
:10262A008BF31EC18CF31DC18DF320C18EF321C122
:10263A008FF31FC190F378C391F3C6EC05F001D074
:10264A00EADCBCD17A51040A43E17505016E026ADB
:10265A00000E025A800E0218006E800E005C03E122
:10266A0001011851015C02E20101186B0101000E1F
:10267A00185D04E2030175050101186F18C18BF397
:10268A00B30EE96E010EEA6E1851E926D8B0EA2AAD
:10269A00EECF8CF3230EE96E010EEA6E1851E9268D
:1026AA00D8B0EA2AEECF8DF318C100F0000E016E01
:1026BA00003600900136450E0024E96E020E012014
:1026CA00EA6EEECF8EF3EECF8FF39DEC09F076D162
:1026DA007A51050A3FE101011B510301755D02E2CE
:1026EA0001011B6B0101000E1B5D02E275C31BF1A8
:1026FA001B510301751903E17EEC0BF02AD01BC1B3
:10270A008BF3B30EE96E010EEA6E01011B51E92645
:10271A00D8B0EA2AEECF8CF3230EE96E010EEA6EE8
:10272A001B51E926D8B0EA2AEECF8DF31BC100F07F
:10273A00000E016E003600900136450E0024E96E47
:10274A00020E0120EA6EEECF8EF3EECF8FF39DECF0
:10275A0009F034D17A51060A02E15DDC2FD17A51AF
:10276A00070A3EE17505016E026A000E025A800EE2
:10277A000218006E800E005C02E16751015CD8A06D
:10278A00676B000E675D02E27505676F67C38BF3BF
:10279A00B30EE96E010EEA6E6751E926D8B0EA2A4D
:1027AA00EECF8CF3230EE96E010EEA6E6751E9262D
:1027BA00D8B0EA2AEECF8DF367C300F0000E016E9F
:1027CA00003600900136450E0024E96E020E012003
:1027DA00EA6EEECF8EF3EECF8FF39DEC09F0EED0DA
:1027EA007A51080AD8A4EAD0030E01011C5DD8B0B8
:1027FA00E3D003017C5303E1775301E101D0786B05
:10280A006751000A03E1020E01011C6FB30EE96E63
:10281A00010EEA6E03016751E926D8B0EA2AEE50A2
:10282A00170809E2B30EE16E010EE26E6751E12666
:10283A00D8B0E22AE66AB30EE96E010EEA6E675173
:10284A00E926D8B0EA2A000EEE5C0AE2B30EE16E7F
:10285A00010EE26E6751E126D8B0E22A170EE66E43
:10286A00230EE96E010EEA6E6751E926D8B0EA2A0C
:10287A00EE503B0809E2230EE16E010EE26E67514B
:10288A00E126D8B0E22AE66A230EE96E010EEA6E64
:10289A006751E926D8B0EA2A000EEE5C0AE2230E56
:1028AA00E16E010EE26E6751E126D8B0E22A3B0ED4
:1028BA00E66E67C300F0000E016E00360090013626
:1028CA00450E0024E96E020E0120EA6EEECF01F0F9
:1028DA00EECF02F0800E010A006E800E0218005C34
:1028EA0002E10150F4080FE267C300F0000E016E26
:1028FA00003600900136450E0024E16E020E0120DA
:10290A00E26EE66AE66A67C300F0000E016E003600
:10291A0000900136450E0024E96E020E0120EA6E8F
:10292A00EECF01F0EECF02F0800E0218006E800E9C
:10293A00005C02E1000E015C11E267C300F0000EC8
:10294A00016E003600900136450E0024E16E020E3B
:10295A000120E26EF40EE66E010EE66E67C38BF39B
:10296A00B30EE96E010EEA6E6751E926D8B0EA2A7B
:10297A00EECF8CF3230EE96E010EEA6E6751E9265B
:10298A00D8B0EA2AEECF8DF367C300F0000E016ECD
:10299A00003600900136450E0024E96E020E012031
:1029AA00EA6EEECF8EF3EECF8FF31CC190F378C3AD
:1029BA0091F3C6EC05F002D010EC10F080A866D1B5
:1029CA007A51000A14E180A812D080A20FD0010E19
:1029DA00826F010E9F6F1CEC01F0836B866B856B17
:1029EA0080A801D0FDD780A201D0FDD7ECD77A51BB
:1029FA00000A08E1020E7A6F816B010E9F6F1CECD0
:102A0A0001F03DD17A51010AD8A46DD080A801D035
:102A1A00FDD78651000A06E18351000A03E1010E3F
:102A2A00836F60D08651000A0BE18351010A08E1E5
:102A3A00836B010E866F010E9F6F1CEC01F052D062
:102A4A008651010A06E18551000A03E1010E856FEC
:102A5A0049D08651010A06E18551010A03E1020EB5
:102A6A00856F40D08651010A32E18551020A2FE171
:102A7A00856B020E866F010E9F6F1CEC01F001013F
:102A8A000B511F0A0FE11251040A0AE01251060AF9
:102A9A0007E01251090A04E012510B0A01E002D0C0
:102AAA001E0E0B6F0B511C0811E21251020A0EE1A5
:102ABA00030E03016915016E0150000A04E11D0E9F
:102ACA0001010B6F03D001011C0E0B6F0BD0030128
:102ADA008651020A07E1010E7A6F866B010E9F6F1B
:102AEA001CEC01F0CCD003017A51020A34E1815185
:102AFA00000A0AE1010E9F6F1CEC01F0010E816FC2
:102B0A0080A801D0FDD726D08151010A0AE1010E21
:102B1A009F6F1CEC01F0020E816F80A801D0FDD7D7
:102B2A0019D08151020A0AE1010E9F6F1CEC01F0D3
:102B3A00030E816F80A801D0FDD70CD08151030A02
:102B4A0009E1010E9F6F1CEC01F0816B7A6B80A882
:102B5A0001D0FDD794D003017A51030A27E180A856
:102B6A0001D0FDD701011F51000A03E1010E1F6FB9
:102B7A001CD01F51010A03E1020E1F6F16D01F510C
:102B8A00020A09E1010E03019F6F1CEC01F0030E1A
:102B9A0001011F6F0AD01F51030A07E1010E030149
:102BAA009F6F1CEC01F001011F6B69D003017A5180
:102BBA00040A0BE1010E9F6F1CEC01F07A6B010114
:102BCA00186B80A801D0FDD75AD003017A51050AA3
:102BDA0014E101011A51000A0EE1050E0B6E0F0EE7
:102BEA000C6EF10E0D6E0D2EFED70C2EFCD70B2E91
:102BFA00FAD7010E1A6F1B2B42D003017A51070A2A
:102C0A0015E101011A51000A0EE1050E0B6E0F0EB5
:102C1A000C6EF10E0D6E0D2EFED70C2EFCD70B2E60
:102C2A00FAD7010E1A6F0301672B29D07A51080AC5
:102C3A0026E180A801D0FDD701011C51000A03E159
:102C4A00010E1C6F1CD01C51010A03E1020E1C6FFD
:102C5A0016D01C51020A09E1010E03019F6F1CECF8
:102C6A0001F0030E01011C6F0AD01C51030A07E18F
:102C7A00010E03019F6F1CEC01F001011C6B0301A3
:102C8A008251010A03E1826B010E7A6F7C5311E0D3
:102C9A007651000A0EE1010E766F050E0B6E0F0ECD
:102CAA000C6EF10E0D6E0D2EFED70C2EFCD70B2ED0
:102CBA00FAD780A25FEF1CF0010E7C6F7A51000AEE
:102CCA0004E17D4B7E2B5FEF1CF07A51010A13E180
:102CDA008651000A010ED8A4000E016E8351000A23
:102CEA00010ED8A4000E006E0150001604E0010186
:102CFA00002B5FEF1CF003017A51010A13E18651A0
:102D0A00000A010ED8A4000E016E8351010A010EB9
:102D1A00D8A4000E006E0150001604E00101052B34
:102D2A005FEF1CF003017A51010A13E18651010A8F
:102D3A00010ED8A4000E016E8551000A010ED8A416
:102D4A00000E006E0150001604E001010B2B5FEF2C
:102D5A001CF003017A51010A13E18651010A010E9E
:102D6A00D8A4000E016E8551010A010ED8A4000EE6
:102D7A00006E0150001604E00101122B5FEF1CF0F7
:102D8A0003017A51010A12E18651010A010ED8A4FF
:102D9A00000E016E8551020A010ED8A4000E006EC3
:102DAA000150001603E0692B5FEF1CF07A51010A0B
:102DBA0051E18651020A4EE1000E8B6F010E8C6FB3
:102DCA00050E8D6F010E8E6F8F6B906B0B0E916FD0
:102DDA00010E926F120E936F010E946F110E956F82
:102DEA00010E966F94EC0BF000C18BF305C18CF3C6
:102DFA008D6B0BC18EF312C18FF311C190F3EDEC01
:102E0A0002F0808A050E0B6E0F0E0C6EF10E0D6E1F
:102E1A000D2EFED70C2EFCD70B2EFAD7030E03016C
:102E2A008B6F69C38CF3CBEC02F0809A680E0C6E40
:102E3A00E40E0D6E0D2EFED70C2EFCD700000301FA
:102E4A00866B7A6B836B856B010E9F6F1CEC01F0AE
:102E5A005FEF1CF07A51020A15E18151000A12E172
:102E6A0001011951000A02E11E6B1D6B030E0301D9
:102E7A007A6F010E9F6F1CEC01F080A201D0FDD782
:102E8A005FEF1CF003017A51020A12E18151030A31
:102E9A000FE17551000A0CE0040E7A6F816B010E86
:102EAA009F6F1CEC01F080A201D0FDD75FEF1CF0F0
:102EBA007A51030A07E101011F51000A03E11E2B9F
:102ECA005FEF1CF003017A51030A08E101011F5167
:102EDA00010A04E10A0E1D275FEF1CF003017A5173
:102EEA00030A08E101011F51020A04E1204B212BC8
:102EFA005FEF1CF003017A51030AD8A494D10101AF
:102F0A001F51030AD8A48FD11F6B03017A6BB30E2A
:102F1A00E16E010EE26E7551E126D8B0E22A1EC1B9
:102F2A00E6FF230EE16E010EE26E7551E126D8B07E
:102F3A00E22A1DC1E6FF75C300F0000E016E0036DD
:102F4A0000900136450E0024E16E020E0120E26E69
:102F5A0020C1E6FF21C1E6FF752B010E0101196FA1
:102F6A0003017505656F65510008D8B0D4D06505B1
:102F7A00006E016A000E015AB30E0024E96E010EBA
:102F8A000120EA6EB30ED96E010EDA6E6551D926AA
:102F9A00D8B0DA2AEE50DE5C2EE36505006E016ACF
:102FAA00000E015AB30E0024E96E010E0120EA6EEA
:102FBA00B30ED96E010EDA6E6551D926D8B0DA2A67
:102FCA00EE50DE1817E16505006E016A000E015A1F
:102FDA00230E0024E96E010E0120EA6E230ED96E3B
:102FEA00010EDA6E6551D926D8B0DA2AEE50DE5CC7
:102FFA0001E201D08ED06505006E016A000E015A09
:10300A00B30E0026010E012200C0E9FF01C0EAFF4B
:10301A00EECF15F1B30EE96E010EEA6E6551E9269F
:10302A00D8B0EA2A00C0E1FF01C0E2FFEECFE6FF16
:10303A00B30EE16E010EE26E6551E126D8B0E22AC6
:10304A0015C1E6FF6505006E016A000E015A230EDE
:10305A000026010E012200C0E9FF01C0EAFFEECFFF
:10306A0015F1230EE96E010EEA6E6551E926D8B014
:10307A00EA2A00C0E1FF01C0E2FFEECFE6FF230E1D
:10308A00E16E010EE26E6551E126D8B0E22A15C161
:10309A00E6FF6505036E046A000E045A03C000F0D9
:1030AA0004C001F0003600900136450E0024036E7C
:1030BA00020E0120046E03C0E9FF04C0EAFFEECF4E
:1030CA0013F1EECF14F165C300F0000E016E003665
:1030DA0000900136450E0024E96E020E0120EA6EC8
:1030EA0003C0E1FF04C0E2FFEECFE6FFEECFE6FF4A
:1030FA0065C300F0000E016E003600900136450EE1
:10310A000024E16E020E0120E26E13C1E6FF14C133
:10311A00E6FF650728D7010E9F6F1CEC01F0808A35
:10312A00050E0B6E0F0E0C6EF10E0D6E0D2EFED7E8
:10313A000C2EFCD70B2EFAD7020E8B6F75C38CF3AD
:10314A00CBEC02F00301656B040E686F7551655D87
:10315A0065E268C38BF3B30EE96E010EEA6E655140
:10316A00E926D8B0EA2AEECF8CF3CBEC02F00301C1
:10317A006851010F8B6F230EE96E010EEA6E6551DD
:10318A00E926D8B0EA2AEECF8CF3CBEC02F0020E95
:10319A00030168258B6F65C300F0000E016E0036CF
:1031AA0000900136450E0024E96E020E0120EA6EF7
:1031BA00EECF00F0EECF01F0640E046E000E056E45
:1031CA00DAEC01F000C08CF3CBEC02F0030E030141
:1031DA0068258B6F65C300F0000E016E0036009003
:1031EA000136450E0024E96E020E0120EA6EEECF8A
:1031FA0000F0EECF01F0640E046E000E056EDAECFC
:10320A0001F008C000F009C001F000C08CF3CBEC5B
:10321A0002F0040E03016827652B98D7809A80A2D2
:10322A0001D0FDD747D303017A51040A03E1010112
:10323A00182B40D303017A51020A0DE18151020A87
:10324A000AE1010E9F6F1CEC01F0050E7A6F80A255
:10325A0001D0FDD72FD37A51050A0AE1010E9F6FDB
:10326A001CEC01F0060E7A6F80A201D0FDD722D3A2
:10327A007A51060AD8A427D1010E9F6F1CEC01F0DF
:10328A0080A201D0FDD77A6B1BC122F101011B512B
:10329A000301751904E1010E756F0101196B1BC158
:1032AA0022F103017505016E026A000E025A800EB0
:1032BA00006E800E0218005C03E101500101225DDC
:1032CA00D8B07BD001012251000A25E122C100F0C9
:1032DA00000E016E003600900136450E0024E16EA4
:1032EA00020E0120E26E2251010F036E046A000EE3
:1032FA00042203C000F004C001F000360090013639
:10330A00450E0024E96E020E0120EA6EEECFE6FFBA
:10331A00EECFE6FF50D0B30EE16E010EE26E2251FF
:10332A00E126D8B0E22A2251010F006E016A000E8E
:10333A000122B30E0024E96E010E0120EA6EEECFDF
:10334A00E6FF230EE16E010EE26E2251E126D8B0AD
:10335A00E22A2251010F006E016A000E0122230E99
:10336A000024E96E010E0120EA6EEECFE6FF22C1CB
:10337A0000F0000E016E003600900136450E002462
:10338A00E16E020E0120E26E2251010F036E046A01
:10339A00000E042203C000F004C001F000360090C1
:1033AA000136450E0024E96E020E0120EA6EEECFC8
:1033BA00E6FFEECFE6FF222B74D703017507010162
:1033CA001B07808A050E0B6E0F0E0C6EF10E0D6E2A
:1033DA000D2EFED70C2EFCD70B2EFAD7020E0301A8
:1033EA008B6F75C38CF3CBEC02F00301656B040E93
:1033FA00686F7551655D65E268C38BF3B30EE96E5C
:10340A00010EEA6E6551E926D8B0EA2AEECF8CF3AE
:10341A00CBEC02F003016851010F8B6F230EE96EAA
:10342A00010EEA6E6551E926D8B0EA2AEECF8CF38E
:10343A00CBEC02F0020E030168258B6F65C300F026
:10344A00000E016E003600900136450E0024E96E2A
:10345A00020E0120EA6EEECF00F0EECF01F0640E0C
:10346A00046E000E056EDAEC01F000C08CF3CBECB2
:10347A0002F0030E030168258B6F65C300F0000E8E
:10348A00016E003600900136450E0024E96E020EE8
:10349A000120EA6EEECF00F0EECF01F0640E046E6A
:1034AA00000E056EDAEC01F008C000F009C001F068
:1034BA0000C08CF3CBEC02F0040E03016827652BE5
:1034CA0098D7809AF7D17A51020A10E18151010AFC
:1034DA000DE17551000A0AE0010E9F6F1CEC01F024
:1034EA00070E7A6F80A801D0FDD7E4D17A51070A76
:1034FA000AE1010E9F6F1CEC01F0080E7A6F80A89A
:10350A0001D0FDD7D7D17A51080A1BE101011C511C
:10351A00000A17E1B30E016E010E026E0301675134
:10352A000126D8B0022A01C0E9FF02C0EAFFEE5024
:10353A00010F006E01C0E1FF02C0E2FF00C0E6FF1A
:10354A00B9D103017A51080A1BE101011C51010A90
:10355A0017E1230E016E010E026E03016751012667
:10356A00D8B0022A01C0E9FF02C0EAFF0A0EEE241F
:10357A00006E01C0E1FF02C0E2FF00C0E6FF9AD17F
:10358A0003017A51080A24E101011C51020A20E1CF
:10359A0067C300F0000E016E003600900136450E3A
:1035AA000024026E020E0120036E02C0E9FF03C06E
:1035BA00EAFFEECF00F0EECF01F0004A012A02C086
:1035CA00E1FF03C0E2FF00C0E6FF01C0E6FF72D1DF
:1035DA0003017A51080AD8A46DD101011C51030ACA
:1035EA00D8A468D11C6B03017A6B010E0101196F13
:1035FA0003017505656F65510008D8B0D4D065051B
:10360A00006E016A000E015AB30E0024E96E010E23
:10361A000120EA6EB30ED96E010EDA6E6551D92613
:10362A00D8B0DA2AEE50DE5C2EE36505006E016A38
:10363A00000E015AB30E0024E96E010E0120EA6E53
:10364A00B30ED96E010EDA6E6551D926D8B0DA2AD0
:10365A00EE50DE1817E16505006E016A000E015A88
:10366A00230E0024E96E010E0120EA6E230ED96EA4
:10367A00010EDA6E6551D926D8B0DA2AEE50DE5C30
:10368A0001E201D08ED06505006E016A000E015A72
:10369A00B30E0026010E012200C0E9FF01C0EAFFB5
:1036AA00EECF15F1B30EE96E010EEA6E6551E92609
:1036BA00D8B0EA2A00C0E1FF01C0E2FFEECFE6FF80
:1036CA00B30EE16E010EE26E6551E126D8B0E22A30
:1036DA0015C1E6FF6505006E016A000E015A230E48
:1036EA000026010E012200C0E9FF01C0EAFFEECF69
:1036FA0015F1230EE96E010EEA6E6551E926D8B07E
:10370A00EA2A00C0E1FF01C0E2FFEECFE6FF230E86
:10371A00E16E010EE26E6551E126D8B0E22A15C1CA
:10372A00E6FF6505036E046A000E045A03C000F042
:10373A0004C001F0003600900136450E0024036EE5
:10374A00020E0120046E03C0E9FF04C0EAFFEECFB7
:10375A0013F1EECF14F165C300F0000E016E0036CE
:10376A0000900136450E0024E96E020E0120EA6E31
:10377A0003C0E1FF04C0E2FFEECFE6FFEECFE6FFB3
:10378A0065C300F0000E016E003600900136450E4A
:10379A000024E16E020E0120E26E13C1E6FF14C19D
:1037AA00E6FF650728D7010E9F6F1CEC01F0808A9F
:1037BA00050E0B6E0F0E0C6EF10E0D6E0D2EFED752
:1037CA000C2EFCD70B2EFAD7020E8B6F75C38CF317
:1037DA00CBEC02F00301656B040E686F7551655DF1
:1037EA0065E268C38BF3B30EE96E010EEA6E6551AA
:1037FA00E926D8B0EA2AEECF8CF3CBEC02F003012B
:10380A006851010F8B6F230EE96E010EEA6E655146
:10381A00E926D8B0EA2AEECF8CF3CBEC02F0020EFE
:10382A00030168258B6F65C300F0000E016E003638
:10383A0000900136450E0024E96E020E0120EA6E60
:10384A00EECF00F0EECF01F0640E046E000E056EAE
:10385A00DAEC01F000C08CF3CBEC02F0030E0301AA
:10386A0068258B6F65C300F0000E016E003600906C
:10387A000136450E0024E96E020E0120EA6EEECFF3
:10388A0000F0EECF01F0640E046E000E056EDAEC65
:10389A0001F008C000F009C001F000C08CF3CBECC5
:1038AA0002F0040E03016827652B98D7809A80A23C
:1038BA0001D0FDD70301775311E07951000A0EE1D7
:1038CA00010E796F050E0B6E0F0E0C6EF10E0D6E5A
:1038DA000D2EFED70C2EFCD70B2EFAD780A446D17C
:1038EA00010E776F7A51000A05E1010E7D5F000E25
:1038FA007E5B3CD17A51010A12E18651000A010E1F
:10390A00D8A4000E016E8351000A010ED8A4000E3D
:10391A00006E0150001603E00101000727D10301E0
:10392A007A51010A12E18651000A010ED8A4000E4A
:10393A00016E8351010A010ED8A4000E006E0150D7
:10394A00001603E00101050711D103017A51010AAA
:10395A0012E18651010A010ED8A4000E016E8551AA
:10396A00000A010ED8A4000E006E0150001603E0F2
:10397A0001010B07FBD003017A51010A12E18651BA
:10398A00010A010ED8A4000E016E8551010A010E2A
:10399A00D8A4000E006E0150001603E001011207C0
:1039AA00E5D003017A51010A11E18651010A010E9B
:1039BA00D8A4000E016E8551020A010ED8A4000E89
:1039CA00006E0150001602E06907D0D07A51010A50
:1039DA000CE18651020A09E1866B7A6B836B856B6F
:1039EA00010E9F6F1CEC01F0C1D07A51030A06E167
:1039FA0001011F51000A02E11E07B8D003017A51E2
:103A0A00030A07E101011F51010A03E10A0E1D5FC2
:103A1A00ADD003017A51030A09E101011F51020ADB
:103A2A0005E1010E205F000E215BA0D003017A514F
:103A3A00030A0FE101011F51030A0BE11F6B030186
:103A4A007A6B010E9F6F1CEC01F080A401D0FDD7A8
:103A5A008DD003017A51040A03E10101180786D0C7
:103A6A0003017A51060A09E17A6B010E9F6F1CEC79
:103A7A0001F080A401D0FDD779D003017A51080A58
:103A8A001AE101011C51000A16E1B30E016E010E82
:103A9A00026E030167510126D8B0022A01C0E9FF6C
:103AAA0002C0EAFFEE04006E01C0E1FF02C0E2FFBD
:103ABA0000C0E6FF5BD003017A51080A1BE101014D
:103ACA001C51010A17E1230E016E010E026E030159
:103ADA0067510126D8B0022A01C0E9FF02C0EAFFF5
:103AEA000A0EEE5C006E01C0E1FF02C0E2FF00C0F8
:103AFA00E6FF3CD003017A51080A26E101011C5174
:103B0A00020A22E167C300F0000E016E003600903F
:103B1A000136450E0024026E020E0120036E02C019
:103B2A00E9FF03C0EAFFEECF00F0EECF01F0010E8D
:103B3A00005E000E015A02C0E1FF03C0E2FF00C0AE
:103B4A00E6FF01C0E6FF12D003017A51080A0EE12E
:103B5A0001011C51030A0AE11C6B03017A6B010E75
:103B6A009F6F1CEC01F080A401D0FDD780B203D076
:103B7A0003017C6B766B80B403D00301776B796B9E
:103B8A0080B802D001011A6B100E03018B6F010E6F
:103B9A008C6F0D0E8D6F010E8E6F0C0E8F6F010ED6
:103BAA00906F0F0E916F010E926F0E0E936F010EB2
:103BBA00946F71EC10F0100E03018B6F010E8C6F75
:103BCA000D0E8D6F010E8E6F0C0E8F6F010E906FA2
:103BDA000F0E916F010E926F0E0E936F010E946F7E
:103BEA00720E956F030E966F47EC0FF0010110519C
:103BFA00000A27E10D51000A24E10C51000A21E1D3
:103C0A000F51010A1EE10E51010A1BE1030166511F
:103C1A00010A17E1692B666B808A050E0B6E0F0E7F
:103C2A000C6EF10E0D6E0D2EFED70C2EFCD70B2E40
:103C3A00FAD7030E8B6F69C38CF3CBEC02F0809A30
:103C4A0016D001011051000A12E10D51000A0FE1CC
:103C5A000C51000A0CE10F51010A09E10E51010A47
:103C6A0006E103016651000A02E1010E666F0101D5
:103C7A001951010A46E10301716B746B7551715D4B
:103C8A002DE2B30ED96E010EDA6E7151D926D8B073
:103C9A00DA2A01011051DE5C1CE3B30ED96E010E63
:103CAA00DA6E03017151D926D8B0DA2A010110510E
:103CBA00DE180EE1230ED96E010EDA6E0301715180
:103CCA00D926D8B0DA2ADE5001010D5D01E301D010
:103CDA0002D071C374F30301712BD0D774C37BF381
:103CEA0074C300F0000E016E003600900136450ED6
:103CFA000024E96E020E0120EA6EEECF7DF3EECFCC
:083D0A007EF389EF11F0FFD7F1
:103DFC0010EE16F0EA0E006E010E016E120EF66E4B
:103E0C003D0EF76E000EF86EE5EC02F011EE01F0CF
:103E1C00020E006E010E016E060EF66E000EF76EAF
:0A3E2C00000EF86EE5EC02F0120043
:02000600CA002E
:033D12002050003E
:023D1500AE00FE
:023D1700BA00F0
:023D1900BF00E9
:023D1B00B100F5
:103D1D0050524F4752414D5320202020202020202B
:013D2D000095
:103D2E00434C45415220414C4C2020202020202045
:013D3E000084
:053D3F002020202000FF
:0A3D440050524F4752414D205000ED
:0D3D4E00454449542050524F4752414D000A
:0C3D5B004144442050524F4752414D005B
:093D670053455420444154450029
:0F3D700052454D4F56452050524F4752414D003E
:103D7F0045584954202020202020205345545F4D82
:013D8F000033
:103D900053415645202020202020205345545F5079
:013DA0000022
:093DA1005345542054494D4500DE
:033DAA00202000D6
:093DAD0064642E6D6D2E7979001D
:053DB60058582E5800D2
:053DBB0058582E5800CD
:063DC00068683A6D6D0019
:033DC600202000BA
:053DC900202020200075
:0F3DCE005345542050524F4752414D3A20500018
:023DDD00C40020
:0E3DDF00564945572050524F4752414D530010
:023DED00F800DC
:053DEF0058582E580099
:063DF40030303A303000CF
:023DFA00F300D4
:020000040030CA
:0D000100231F3CFFBF81FF0FC00FE00F4029
:00000001FF
